S01700004763634170706C69636174696F6E312E737265635B
S11300000C942A000C9434000C9434000C943400A6
S11300100C9434000C9434000C9434000C9434008C
S11300200C9434000C9434000C9434000C9434007C
S11300300C9434000C9434000C9434000C9434006C
S11300400C9434000C9434000C9434000C9434005C
S11300500C94340011241FBECFE5D8E0DEBFCDBF21
S11300600E9444000C9446000C9400008FEF87BB60
S113007084BB87BB81BB85E088BB8CE685BB8CE2F7
S113008082BB8AEA88BBFFCF0E943600F894FFCF78
S9030000FC
