:100000000C942A000C943C000C943C000C943C0092
:100010000C943C000C943C000C943C000C943C0070
:100020000C943C000C943C000C943C000C943C0060
:100030000C943C000C943C000C943C000C943C0050
:100040000C943C000C943C000C943C000C943C0040
:100050000C943C0011241FBECFE5D8E0DEBFCDBF1D
:1000600020E0A0E6B0E001C01D92A636B207E1F79D
:100070000E945E000C94A3000C94000017BA8FEF4E
:1000800081BB0F2EF1E3FF2EF02D00E312E3D3E34B
:10009000C6B3C3708C2F90E00E946000C13041F065
:1000A00028F0C23039F0C33039F0F2CF02BBF0CFC4
:1000B000F2BAEECF12BBECCFD2BBEACF0E943E0029
:1000C00060916200709163000E94670008950F9331
:1000D0001F93CF93DF93FB01238121FD03C08FEF9B
:1000E0009FEF2CC022FF16C04681578124813581A5
:1000F0004217530744F4A081B1819D012F5F3F4F08
:10010000318320838C93268137812F5F3F4F378344
:10011000268314C08B01EC01FB010084F185E02DE6
:100120000995892BE1F6D80116968D919C91179728
:10013000019617969C938E931697CE01DF91CF91DF
:0A0140001F910F910895F894FFCF6E
:00000001FF
