:100000000C942A000C9434000C9434000C943400AA
:100010000C9434000C9434000C9434000C94340090
:100020000C9434000C9434000C9434000C94340080
:100030000C9434000C9434000C9434000C94340070
:100040000C9434000C9434000C9434000C94340060
:100050000C94340011241FBECFE5D8E0DEBFCDBF25
:100060000E9440000C9442000C9400008DEF87BB6E
:1000700080E884BBB19B02C0AF9AFCCFAF98FACFA7
:080080000E943600F894FFCF46
:00000001FF
