:100000000C942A000C9434000C9434000C943400AA
:100010000C9434000C9434000C9434000C94340090
:100020000C9434000C9434000C9434000C94340080
:100030000C9434000C9434000C9434000C94340070
:100040000C9434000C9434000C9434000C94340060
:100050000C94340011241FBECFE5D8E0DEBFCDBF25
:100060000E9436000C9441000C9400008FEF87BB77
:100070008AEA88BB8AE098B3909598BB8150D9F7FB
:06008000FFCFF894FFCF52
:00000001FF
