:100000000C942A000C9434000C9434000C943400AA
:100010000C9434000C9434000C9434000C94340090
:100020000C9434000C9434000C9434000C94340080
:100030000C9434000C9434000C9434000C94340070
:100040000C9434000C9434000C9434000C94340060
:100050000C94340011241FBECFE5D8E0DEBFCDBF25
:100060000E943E000C9443000C9400008FEF84BB70
:1000700087BB89E388BB82E385BB08950E94360075
:0A00800080E090E00895F894FFCFAF
:00000001FF
