:100000000C942A000C943F000C943F000C943F0089
:100010000C943F000C943F000C943F000C943F0064
:100020000C943F000C943F000C943F000C943F0054
:100030000C943F000C943F000C943F000C943F0044
:100040000C943F000C943F000C943F000C943F0034
:100050000C943F0011241FBECFE5D8E0DEBFCDBF1A
:1000600010E0A0E6B0E0E0EAF0E002C005900D92FA
:10007000A036B107D9F70E944C000C944E000C94A6
:10008000000014BA8FEF87BB81BB83B3843610F4B2
:1000900088BBFBCF82BBF9CF0E944100F894FFCF11
:00000001FF
