:100000000C942A000C943F000C943F000C943F0089
:100010000C943F000C943F000C943F000C943F0064
:100020000C943F000C943F000C943F000C943F0054
:100030000C943F000C943F000C943F000C943F0044
:100040000C943F000C943F000C943F000C943F0034
:100050000C943F0011241FBECFE5D8E0DEBFCDBF1A
:1000600010E0A0E6B0E0EAE3F1E002C005900D92F6
:10007000A437B107D9F70E9496000C949B000C940A
:1000800000008FEF87BB80E088BB8F5FFDCF8FEFD5
:1000900087BB8AEA88BB8AE098B3909598BB815069
:1000A000D9F7FFCFDF93CF93CDB7DEB729970FB640
:1000B000F894DEBF0FBECDBFDE011196EBE6F0E097
:1000C00089E001900D928150E1F78FEF87BBFE012F
:1000D0003196CE010A96219128BBE817F907D9F786
:1000E000FFCFDF93CF93CDB7DEB72B970FB6F89442
:1000F000DEBF0FBECDBFDE011196E0E6F0E08BE083
:1001000001900D928150E1F78FEF87BBFE01319690
:10011000CE010B96219128BBE817F907D9F7FFCF3D
:1001200017BA8FEF84BB86B385BBFDCF0E94470013
:0A01300080E090E00895F894FFCFFE
:10013A003031323334354142434400FCFDFEFF0086
:04014A0001020304A7
:00000001FF
