S011000070726F6772616D2D342E73726563BA
S11300000C942A000C943F000C943F000C943F0085
S11300100C943F000C943F000C943F000C943F0060
S11300200C943F000C943F000C943F000C943F0050
S11300300C943F000C943F000C943F000C943F0040
S11300400C943F000C943F000C943F000C943F0030
S11300500C943F0011241FBECFE5D8E0DEBFCDBF16
S113006010E0A0E6B0E0E4ECF0E002C005900D92F0
S1130070AC36B107D9F70E9441000C9460000C948F
S11300800000CF93DF93CDB7DEB72B970FB6F8946C
S1130090DEBF0FBECDBF8BE0E0E6F0E0DE011196DF
S11300A001900D928A95E1F78FEF87BBFE0131969F
S11300B0CE010C96219128BBE817F907D9F7FFCF99
S10700C0F894FFCFDE
S10F00C4303132333435414243440000F3
S9030000FC
