S013000070726F6A6563742D332D342E7372656359
S11300000C942A000C9434000C9434000C943400A6
S11300100C9434000C9434000C9434000C9434008C
S11300200C9434000C9434000C9434000C9434007C
S11300300C9434000C9434000C9434000C9434006C
S11300400C9434000C9434000C9434000C9434005C
S11300500C94340011241FBECFE5D8E0DEBFCDBF21
S11300600E943E000C9440000C940000B998A79A9A
S1130070B19B02C0AF9AFCCFAF98FACF0E94360072
S1070080F894FFCF1E
S9030000FC
