:100000000C942A000C9434000C9434000C943400AA
:100010000C9434000C9434000C9434000C94340090
:100020000C9434000C9434000C9434000C94340080
:100030000C9434000C9434000C9434000C94340070
:100040000C9434000C9434000C9434000C94340060
:100050000C94340011241FBECFE5D8E0DEBFCDBF25
:100060000E9436000C9441000C94000014BA8FEFEB
:1000700087BB81BB83B3853610F088BBFBCF82BBC7
:06008000F9CFF894FFCF58
:00000001FF
