S013000070726F6A6563742D332D332E737265635A
S11300000C942A000C9434000C9434000C943400A6
S11300100C9434000C9434000C9434000C9434008C
S11300200C9434000C9434000C9434000C9434007C
S11300300C9434000C9434000C9434000C9434006C
S11300400C9434000C9434000C9434000C9434005C
S11300500C94340011241FBECFE5D8E0DEBFCDBF21
S11300600E9436000C9441000C9400008FEF87BB73
S113007014BA9AEA85E59D9B02C088BBFCCF98BB65
S1090080FACFF894FFCF53
S9030000FC
