S01800004763634170706C69636174696F6E35332E7372656323
S11300000C942A000C9434000C9434000C943400A6
S11300100C9434000C9434000C9434000C9434008C
S11300200C9434000C9434000C9434000C9434007C
S11300300C9434000C9434000C9434000C9434006C
S11300400C9434000C9434000C9434000C9434005C
S11300500C94340011241FBECFE5D8E0DEBFCDBF21
S11300600E9436000C9440000C9400008FEF84BB77
S113007087BB89E388BB82E385BB80E090E0089579
S1070080F894FFCF1E
S9030000FC
